:03000000020026D5
:0C002600787FE4F6D8FD75810802006DBB
:1000B2003F065B4F666D7D077F6F777C395E797196
:0100C20040FD
:0300D00001081014
:10000300D2AFD2ACC29FD29ED29C758920758DFD92
:08001300758BFDD28EC2A02204
:0D00C300120003E5089000B293F58080F66E
:0300230002001BBD
:06001B00C298859908322D
:100032000200C3E493A3F8E493A34003F68001F221
:1000420008DFF48029E493A3F85407240CC8C333CF
:10005200C4540F4420C8834004F456800146F6DF9E
:10006200E4800B01020408102040809000D0E47E5E
:10007200019360BCA3FF543F30E509541FFEE49393
:10008200A360010ECF54C025E060A840B8E493A35A
:10009200FAE493A3F8E493A3C8C582C8CAC583CA85
:1000A200F0A3C8C582C8CAC583CADFE9DEE780BE3D
:0100D300002C
:00000001FF
