:0300000002019F5B
:0C019F00787FE4F6D8FD7581080201AB02
:1001180049204C4F5645204D4943524F434F4E546A
:10012800524F4C4C4552212000CED2B0AEB5A5C698
:05013800ACBBFA210040
:0B01AB001200F312013D12015F80FE04
:1000F3007F647E001201817F301200037F021200B1
:10010300037F061200037F0C1200037F011200031A
:050113007F80020003E3
:100003007EF8D2A0C2A1E4FDEDC39408748094806D
:100013005013EE24FFE4333392A2C2A1D2A1EE2502
:10002300E0FE0D80E3AE075306F0E4FDEDC3940854
:10003300748094805013EE24FFE4333392A2C2A160
:10004300D2A1EE25E0FE0D80E3AE07EEC454F0FE30
:10005300E4FDEDC39408748094805013EE24FFE410
:10006300333392A2C2A1D2A1EE25E0FE0D80E3C2FA
:08007300A07F017E0002018163
:10007B007EFAD2A0C2A1E4FDEDC3940874809480F3
:10008B005013EE24FFE4333392A2C2A1D2A1EE258A
:10009B00E0FE0D80E3AE075306F0E4FDEDC39408DC
:1000AB00748094805013EE24FFE4333392A2C2A1E8
:1000BB00D2A1EE25E0FE0D80E3AE07EEC454F0FEB8
:1000CB00E4FDEDC39408748094805013EE24FFE498
:1000DB00333392A2C2A1D2A1EE25E0FE0D80E3C282
:0800EB00A07F017E00020181EB
:10013D007F80120003E4F508C3E5089419748094D8
:10014D0080500EE50890011893FF12007B05088082
:01015D00E7BA
:01015E00227E
:10015F007F90120003E4F508C3E508940B748094B4
:10016F0080500EE50890013193FF12007B05088047
:01017F00E798
:01018000225C
:10018100D3EF9400EE940040147D717C00ED1D705E
:0D019100011CED4C70F7EF1F70E61E80E3BF
:01019E00223E
:00000001FF
