:0300000002019466
:0C019400787FE4F6D8FD758108020003B6
:1000EA0049204C4F5645204D4943524F434F4E5499
:1000FA00524F4C4C455221200049204C4F56452026
:0A010A004C4541524E494E4721007A
:1000030012016A7F80120180E4F508C3E5089410A9
:1000130074809480500A120136120114050880EB93
:100023007FC0120180E4F508C3E50894107480943E
:1000330080500D900103120139120114050880E864
:100043007F90120180E4F508C3E508940774809457
:100053008050107F181201807FC87E00120118059E
:100063000880E57F90120180750810C3E508941994
:1000730074809480500A120136120114050880EB33
:100083007FE87E031201187F0C1201807F021201A8
:10009300807FD07E07120118E4F508C3E5089409B0
:1000A30074809480500C7F1812018012011405088B
:1000B30080E9E4F508C3E508940974809480500C42
:1000C3007F1C120180120114050880E97FE87E037A
:1000D3001201187F0F1201807F011201807FE87ED9
:0700E30003120118020006E0
:10016A00C2A77F381201807F0F1201807F06120119
:06017A00807F01020180FC
:100151007580FFC2A5D2A6D2A77F017E0012011829
:08016100AF80EF20E7F1C2A717
:010169002273
:10018000C2A5C2A6C2A78F807F017E00120118D22D
:04019000A7C2A72239
:070136009000EAE50893FFC9
:10013D00D2A5C2A6C2A78F807F017E00120118D260
:04014D00A7C2A7227C
:040114007FF47E01F5
:10011800D3EF9400EE940040147D717C00ED1D70C7
:0D012800011CED4C70F7EF1F70E61E80E328
:0101350022A7
:00000001FF
