:100D4F00323031342D20202D2020205448550020C2
:080D5F00203A20203A20200078
:0F0CA4008F807F017E00120CB3D2B47F017E00DF
:100CB300D3EF9400EE940040147D6E7C00ED1D7024
:0D0CC300011CED4C70F7EF1F70E61E80E382
:010CD0002201
:080DEF00C2B5120CA4C2B4222B
:080DA000FF120DEFEA2430FF01
:080DA800D2B5120CA4C2B42262
:060D3500C292C290D292AE
:100D3B00EFD292751108A2E09291C290D290C31398
:040D4B00D511F322A9
:100D6700D292751108A29192E7D290C290C313D57F
:040D770011F3FF2253
:100CD100E50A75F00A84C454F0FFE50A75F00A8448
:090CE100EF25F0F50CE4FD7F8E17
:0F0CEA00AE05120D35AF06120D3BD290C292220D
:0A0DD900120D35120D67D290C29280
:010DE30022ED
:030D7B00120DD97D
:100D7E00EFC4540FFEEF540FFDEE75F00AA42DFFD5
:010D8E002242
:0B0DE400C292C290AD0A7F80020CEAB0
:040CF900AD0A7F0AB7
:100CFD00ED75F00A84ABF0ED75F00A84FAEF24C0BF
:0A0D0D00120DA0EB2430FF020DA828
:040D1700AD107F0A92
:100D1B00ED75F00A84ABF0ED75F00A84FAEF2480E0
:0A0D2B00120DA0EB2430FF020DA80A
:100B4100AB077F8D120DEFEB14B407004003020BCE
:100B5100D3900B6075F003A4C58325F0C5837302A0
:100B61000B75020B7E020B8C020B9A020BA8020B77
:100B7100B6020BC47F4D120DA87F4F804D7F5412DA
:100B81000DA87F55120DA87F4580447F57120DA8EF
:100B91007F45120DA87F4480367F54120DA87F48EF
:100BA100120DA87F5580287F46120DA87F52120D85
:100BB100A87F49801A7F53120DA87F54120DA87F78
:100BC10041800C7F53120DA87F55120DA87F4E1244
:030BD1000DA8224A
:100C5700C2B67F38120DEF7F0C120DEF7F06120D13
:100C6700EF7F01120DEF7F82120DEFE4F511E51111
:100C7700900D4F93FF120DA80511E511C3940E4077
:100C8700ED7FC4120DEFE4F511E511900D5E93FFB2
:0D0C9700120DA80511E511C3940840ED22CF
:10080000C2B730B0030208997F057E00120CB330E6
:10081000B00302089930B0FD0512E512B409037562
:100820001201E51214B40800506F90083875F003F7
:10083000A4C58325F0C58373020850020866020828
:100840006A02086E02087202087602087A020881BB
:10085000C28C7FCB120DEF7F0F120DEF120CD1E582
:100860000C4480FD80277FC880127FC5800E7F8F5B
:10087000800A7F8B80067F8880027F85120DEF8043
:10088000187F0C120DEFD28C120CD1AD0C7F8012A0
:100890000CEA7D807F8E120CEAE5127003020B4099
:1008A00030B1030209FA7F057E00120CB330B103A8
:1008B0000209FA30B1FDE51214B407004003020941
:1008C000FA9008CF75F003A4C58325F0C5837302A1
:1008D00008E402090A02093D0209700209840209BA
:1008E000B20209E4050AE50AB43C03E4F50A120C75
:1008F000F9120CD1E50C4480FD7F80120CEA7D805A
:100900007F8E120CEA7FCB0209F7050DE50DB43C92
:1009100003E4F50DAD0D7F07120CFDE50D75F00A32
:1009200084C454F0FFE50D120CDDAD0C7F82120C77
:10093000EA7D807F8E120CEA7FC80209F7050EE57A
:100940000EB41803E4F50EAD0E7F04120CFDE50E97
:1009500075F00A84C454F0FFE50E120CDDAD0C7F77
:1009600084120CEA7D807F8E120CEA7FC50209F7A3
:10097000050BE50BB40803E4F50BAF0B120B417F3D
:100980008F0209F70510E510B41F03E4F510120DEE
:1009900017E51075F00A84C454F0FFE510120CDD61
:1009A000AD0C7F86120CEA7D807F8E120CEA7F8B65
:1009B0008045050FE50FB40D03E4F50FAD0F7F077C
:1009C000120D1BE50F75F00A84C454F0FFE50F12F9
:1009D0000CDDAD0C7F88120CEA7D807F8E120CEA54
:1009E0007F8880130509E509B46403E4F509AD09BE
:1009F0007F04120D1B7F85120DEF30B203020B40F6
:100A00007F057E00120CB330B203020B4030B2FD02
:100A1000E51214B407004003020B40900A2975F058
:100A200003A4C58325F0C58373020A3E020A50025F
:100A30000A83020AB6020ACA020AF8020B2A150A37
:100A4000E50AB4FF03750A3B120CF97FCB020B3D9C
:100A5000150DE50DB4FF03750D3BAD0D7F07120CB1
:100A6000FDE50D75F00A84C454F0FFE50D120CDDB0
:100A7000AD0C7F82120CEA7D807F8E120CEA7FC85B
:100A8000020B3D150EE50EB4FF03750E17AD0E7F7C
:100A900004120CFDE50E75F00A84C454F0FFE50E57
:100AA000120CDDAD0C7F84120CEA7D807F8E120C5F
:100AB000EA7FC5020B3D150BE50BB4FF03750B0771
:100AC000AF0B120B417F8F020B3D1510E510B4FFE9
:100AD0000375101E120D17E51075F00A84C454F04A
:100AE000FFE510120CDDAD0C7F86120CEA7D807FD5
:100AF0008E120CEA7F8B8045150FE50FB4FF03754E
:100B00000F0CAD0F7F07120D1BE50F75F00A84C4A3
:100B100054F0FFE50F120CDDAD0C7F88120CEA7D5E
:100B2000807F8E120CEA7F8880131509E509B4FFD7
:100B300003750963AD097F04120D1B7F85120DEF4C
:010B40002292
:0F0DB000758911E4F58CF58AD2AFD2A9D28C22C5
:0E0DBF00D2A6E4F580C2A6D2A7F580C2A72274
:100D8F00120DBF120C57120DE4120DB01208008095
:010D9F00FB58
:03000B00020BD411
:100BD400C0E0C0F0C0D075D000C002C003C004C0E3
:100BE40005C006C0077F81120D7B8F0A7F83120D1B
:100BF4007B8F0D7F85120DD9120D7E8F0E7F87128C
:100C04000DD9120D7E8F107F89120DD9120D7E8F92
:100C14000F7F8D120DD9120D7E8F097F8B120DD986
:100C2400120D7E8F0B120CF9AD0D7F07120CFDAD6A
:100C34000E7F04120CFD120D17AD0F7F07120D1B52
:100C4400D007D006D005D004D003D002D0D0D0F045
:030C5400D0E032BB
:03000000020DCD21
:0C0DCD00787FE4F6D8FD758112020D8FCE
:00000001FF
