:03000000020800F3
:0C080000787FE4F6D8FD75810A020847F5
:03090500010800E6
:03000B000208D315
:0408D300C0E0C0D0F1
:1008D700758CDC0508E508D395094004D2918002A0
:1008E700C291E508D3950A4004D2928002C292E5EC
:0908F70008D3940A4003750800BF
:05090000D0D0D0E03270
:10088C00438901758CDCE4F58AD28CC2ADC2A875A3
:10089C00B820D2AFD2A920800A208107E4F509F54F
:1008AC000A80F320800B308108E4F509750A068074
:1008BC00E530800B208108750906E4F50A80D775B0
:0708CC000906750A0680CF42
:10080C0002088CE493A3F8E493A34003F68001F26E
:10081C0008DFF48029E493A3F85407240CC8C333ED
:10082C00C4540F4420C8834004F456800146F6DFBC
:10083C00E4800B0102040810204080900905E47E3E
:10084C00019360BCA3FF543F30E509541FFEE493B1
:10085C00A360010ECF54C025E060A840B8E493A378
:10086C00FAE493A3F8E493A3C8C582C8CAC583CAA3
:10087C00F0A3C8C582C8CAC583CADFE9DEE780BE5B
:0109080000EE
:00000001FF
