:03000000020AF2FF
:0C0AF200787FE4F6D8FD758120020AB67A
:10080000CB3516B9129699A5BD9996151315623276
:1008100013A7262516A922A3A996151699E5BB1597
:10082000A7AA9699D51315231516179AD61516B992
:100830001225232322131221961543C99699961542
:1008400013151699D5002325261615361342232590
:100850002616152653232526161526234225231250
:1008600013121122D626DA25531211D6AD231213F4
:10087000121122D60055232526A9227345252623A9
:1008800022212372522345432221A62566C9A6258B
:10089000232526A9F545232546C9221312212263C3
:1008A000222325262523222172522345432221A6D5
:1008B0002566B912232522A5AB22710015167515E0
:1008C00016551315161516991213654513121112A4
:1008D0007362421211961576552345A922531213BD
:1008E0006552224221A6E991121312131599122082
:1008F000232323632223232241A625532221A92136
:10090000A67526A921A6C9121196152325252645C7
:100910002122133525A9A625232271522545131519
:1009200013122141224345232526A9421233725135
:1009300022432221C6C929C6452323532526251330
:10094000122162422325552625234526A92122630B
:10095000522222131221A6F9000001020304060804
:1009600010FFEAF243F3C2F518F5B7F6D1F7DBF85A
:10097000BEFFEAF922F9E1FA8CFADCFB6CFBECFC35
:100980005EFFEAFC93FCF2FD47FD6EFDB6FDF6FE50
:100990002FFFEAFE49FE79FEA4FEB7FEDBFEECFF68
:1009A0000AFFEAF30DF477F5B7F646F759F84FF971
:1009B00022FFEAF987FA3CFADCFB26FBADFC26FCB9
:1009C00093FFEAFCC4FD1EFD6EFD93FDD7FE14FEF1
:1009D00049FFEAFE62FE8FFEB7FECAFEE4FEFBFFA1
:0109E0001600
:03001B00020AFED8
:090AFE0085088D85098BB2903248
:100AE0007E7DEF75F008A4FF7D1E00DDFDDEF9DFE1
:010AF000F70E
:010AF10022E2
:0409E100AB07AA06B0
:1009E5007C20750B80C200C2017508FF7509EA7588
:1009F5008911D2ABD28E8B828A83E493FF70030276
:100A05000AAC5407F9EFC4540FF50A6073EFC394A9
:100A1500804019EF20E30BEC9410401074F02CFC8F
:100A2500800AECC39430500474102CFC30000CC2C6
:100A3500ABE925E02CFF9009A1800AC2ABE925E0CE
:100A45002CFF90096193F508EFA393F509D2AB301C
:100A55000120C2ABD290E50A54079009599314FFBF
:100A6500120AE07508FF7509EA7F01120AE0D2ABA8
:100A7500802BE50A540790095993FF120AE0801D5F
:100A8500E924FB600E14600F1460102403700EC27D
:100A950000800AD2008006C2018002D2010BBB0091
:100AA500010A15800209FBC2ABC28ED2907580FF88
:010AB500221E
:100AB60075891175885075B80875A8887E087F00F5
:100AC6001209E17E087F461209E17E087F75120948
:0A0AD600E17E087FBC1209E180E216
:00000001FF
