:03000000020A7879
:0C0A7800787FE4F6D8FD7581190209238F
:0A0A84003F065B4F666D7D077F6F34
:060A1D008B178A188919ED
:100A2300E4FFAB17AA18A9198F827583001208F681
:100A3300F580E4FDFCE4FBFA0BBB00010AEB646EFA
:100A43004A70F50DBD00010CBC03EABDE8E70FBF1A
:020A53000AD0C7
:010A5500227E
:1009230078087C007D007BFF7A0A79847E007F0A49
:0F0933001208D07B007A007908120A1DE4F580C3
:100942007515FE75167F851514E4F512F5138515D8
:10095200907FF47E01120A5AAF157801EF088001E8
:1009620023D8FDF5150513E51370020512C394088B
:10097200E512940040D8E4F590120A567590FF12E1
:100982000A567590AA120A56759055120A56E4F53F
:1009920012F513851690120A56E516C313F51605BD
:1009A20013E51370020512C39408E512940040E3A4
:1009B200E4F512F5138514907FF47E01120A5AE5CC
:1009C2001425E0F5140513E51370020512C394080B
:1009D200E512940040DFE4F512F513C3E513940326
:1009E200E51294004003020942E4F5907F2C7E0157
:1009F200120A5A7590FF7F2C7E01120A5A7590F0E6
:100A02007F2C7E01120A5A75900F7F2C7E01120AEA
:0B0A12005A0513E51370C4051280C0E4
:040A56007FE87E03B4
:100A5A00D3EF9400EE940040147D6E7C00ED1D707F
:0D0A6A00011CED4C70F7EF1F70E61E80E3DD
:010A7700225C
:10080000E709F608DFFA8046E709F208DFFA803EDA
:1008100088828C83E709F0A3DFFA8032E309F608C7
:10082000DFFA8078E309F208DFFA807088828C832F
:10083000E309F0A3DFFA806489828A83E0A3F608E3
:10084000DFFA805889828A83E0A3F208DFFA804CBD
:1008500080D280FA80C680D4806980F28033801094
:1008600080A680EA809A80A880DA80E280CA8033FD
:1008700089828A83ECFAE493A3C8C582C8CCC58375
:10088000CCF0A3C8C582C8CCC583CCDFE9DEE78045
:100890000D89828A83E493A3F608DFF9ECFAA9F0C4
:1008A000EDFB2289828A83ECFAE0A3C8C582C8CC1A
:1008B000C583CCF0A3C8C582C8CCC583CCDFEADE33
:1008C000E880DB89828A83E493A3F208DFF980CC95
:1008D00088F0EF60010E4E60C388F0ED2402B4048E
:1008E0000050B9F582EB2402B4040050AF23234535
:0608F00082239008507302
:1008F600BB010CE58229F582E5833AF583E02250B7
:1009060006E92582F8E622BBFE06E92582F8E22200
:0D091600E58229F582E5833AF583E493221A
:00000001FF
