:030000000209846E
:0C098400787FE4F6D8FD7581150208F6B6
:0A0990003F065B4F666D7D077F6F29
:1008F60078087C007D007BFF7A0979907E007F0A6C
:100906001208D0C297C296C295C294C293C292C22E
:1009160091C29012095DD297D296D295D294D29373
:10092600D292D291D29012095DE4FF74082FF8E6B4
:10093600F580E4FDFCE4FBFAC3EB9DEA9C50070B53
:10094600BB00010A80F20DBD00010CBC01E7BD5ED3
:07095600E40FBF0AD680ACDC
:10095D00E4F512F513E4F514F5150515E51570021A
:10096D000514640A451470F20513E513700205129F
:07097D00640A451270DF223D
:10080000E709F608DFFA8046E709F208DFFA803EDA
:1008100088828C83E709F0A3DFFA8032E309F608C7
:10082000DFFA8078E309F208DFFA807088828C832F
:10083000E309F0A3DFFA806489828A83E0A3F608E3
:10084000DFFA805889828A83E0A3F208DFFA804CBD
:1008500080D280FA80C680D4806980F28033801094
:1008600080A680EA809A80A880DA80E280CA8033FD
:1008700089828A83ECFAE493A3C8C582C8CCC58375
:10088000CCF0A3C8C582C8CCC583CCDFE9DEE78045
:100890000D89828A83E493A3F608DFF9ECFAA9F0C4
:1008A000EDFB2289828A83ECFAE0A3C8C582C8CC1A
:1008B000C583CCF0A3C8C582C8CCC583CCDFEADE33
:1008C000E880DB89828A83E493A3F208DFF980CC95
:1008D00088F0EF60010E4E60C388F0ED2402B4048E
:1008E0000050B9F582EB2402B4040050AF23234535
:0608F00082239008507302
:00000001FF
