:03000000020003F8
:0C000300787FE4F6D8FD75813502004AD4
:10017C00061E74656D703A00022C430007087370FC
:10018C006565643A00041A6D2F7300060F61726581
:10019C00613A0003246D320005156361703A000565
:0601AC00276D332F7300E4
:10020600120227752E00752F01AF2F12008F052FB2
:10021600E52F7002052ED39404E52E940040EA8063
:01022600FED9
:0D024100C2B61201E0D2A71201E4C2A7224A
:0D024E00D2B61201E0D2A71201E4C2A7222D
:10022700C2A6C2A5C2A77F381202417F0C120241A3
:0A0237007F061202417F010202411E
:100140008F348D35EF64017008E5352480FF12028D
:1001500041E53464027008E53524C0FF120241E530
:100160003464037008E5352490FF120241E53464DD
:0C017000047008E53524D0FF1202412283
:0400FC007B00E4FDA4
:060100008B308A318932C8
:10010600120140E4F533AB30AA31A932853382754A
:1001160083001201B3FF600712024E053380E77FAA
:10012600057E007D727C00ED1D70011CED4C70F7A4
:09013600EF1F70011EEF4E70EA8C
:01013F00229D
:10008F00EF24FE601F1460311460472403705D7A03
:10009F0000791E7F011200FC7B007A00792C7D0D08
:1000AF007F0180457A0079087F021200FC7B007A7D
:1000BF0000791A7D0C7F0280307B007A00790FE483
:1000CF00FD7F031201007B007A0079247D0C7F03F2
:1000DF0080177B007A007915E4FD7F041201007B05
:0D00EF00007A0079277D0B7F0412010022AA
:0801E000C2B78F807F057E008D
:1001E800D3EF9400EE940040147D727C00ED1D70F6
:0D01F800011CED4C70F7EF1F70E61E80E358
:0102050022D6
:0B025B00E4FEEEC39F5004000E80F78D
:010266002275
:10000F00020206E493A3F8E493A34003F68001F2FF
:10001F0008DFF48029E493A3F85407240CC8C333F2
:10002F00C4540F4420C8834004F456800146F6DFC1
:10003F00E4800B010204081020408090017CE47ED4
:10004F00019360BCA3FF543F30E509541FFEE493B6
:10005F00A360010ECF54C025E060A840B8E493A37D
:10006F00FAE493A3F8E493A3C8C582C8CAC583CAA8
:10007F00F0A3C8C582C8CAC583CADFE9DEE780BE60
:0101B200004C
:1001B300BB010CE58229F582E5833AF583E0225001
:1001C30006E92582F8E622BBFE06E92582F8E2224B
:0D01D300E58229F582E5833AF583E4932265
:00000001FF
