:0300000002017E7C
:0C017E00787FE4F6D8FD7581200201C5F1
:1002AE003F065B4F666D7D077F6F777C395E797198
:0102BE0040FF
:0502DB00010910C10043
:10027200D2AFD2ACD2A8758920C29FD29ED29C7531
:100282008DFD758BFDD28EC2B4E5099002AE93F559
:0702920090C2887580F02284
:10020A00E4F50A120272120006E5099002AE93F5AD
:10021A0090E50A6509600FC2AC8509993099FDC25B
:10022A0099D2AC85090A3000E0C2ACAF081202C903
:10023A00E508B42E057F021202BFC200D2AC80C903
:03000300020026D2
:10002600C0E0C0F0C083C082C0D075D000C000C0A0
:0D00360001C002C003C004C005C006C00721
:100043007F087E00120254AF80EF64F07003020158
:10005300607580FEE58054F0FF64F06037EF249014
:10006300601B24C0601224E0600924F07014750939
:10007300008012750901800D750902800875090356
:100083008003750910EF64F0600A7580FEE5805403
:10009300F0FF80F17580FDE58054F0FF64F0603778
:1000A300EF2490601B24C0601224E0600924F070E8
:1000B300147509048012750905800D7509068008F9
:1000C3007509078003750910EF64F0600A7580FDF8
:1000D300E58054F0FF80F17580FBE58054F0FF6408
:1000E300F06037EF2490601B24C0601224E06009A5
:1000F30024F070147509088012750909800D7509BB
:100103000A800875090B8003750910EF64F0600A13
:100113007580FBE58054F0FF80F17580F7E580542E
:10012300F0FF64F06037EF2490601B24C06012245A
:10013300E0600924F0701475090C801275090D80B4
:100143000D75090E800875090F8003750910EF649A
:10015300F0600A7580F7E58054F0FF80F17580F058
:10016300D007D006D005D004D003D002D001D000F0
:0B017300D0D0D082D083D0F0D0E0329A
:030023000202D303
:0802D300C298859908D200329F
:10000600C2B57F381202BF7F0C1202BF7F061202F2
:0B001600BF7F011202BF7F800202BF0B
:1002990075A0FFC2B7D2B6D2B5120250AFA0EF20F7
:0402A900E7F5C2B5FE
:0102AD00222E
:0A02BF00C2B712024AD2B5C2B5223E
:0A02C900D2B712024AD2B5C2B52224
:0A024A00C2B6C2B58FA07F017E008E
:10025400D3EF9400EE940040147D717C00ED1D708A
:0D026400011CED4C70F7EF1F70E61E80E3EB
:01027100226A
:10018A0002020AE493A3F8E493A34003F68001F27F
:10019A0008DFF48029E493A3F85407240CC8C33376
:1001AA00C4540F4420C8834004F456800146F6DF45
:1001BA00E4800B01020408102040809002DBE47EF8
:1001CA00019360BCA3FF543F30E509541FFEE4933A
:1001DA00A360010ECF54C025E060A840B8E493A301
:1001EA00FAE493A3F8E493A3C8C582C8CAC583CA2C
:1001FA00F0A3C8C582C8CAC583CADFE9DEE780BEE4
:0102E000001D
:00000001FF
