:0300000002017E7C
:0C017E00787FE4F6D8FD7581200201C5F1
:1002C2003F065B4F666D7D077F6F777C395E797184
:0602D200404F4B4B2121BF
:05030900010910C10014
:10029B00D2AFD2ACD2A8758920C29FD29ED29C7508
:1002AB008DFD758BFDD28EC2B4E5099002C293F51C
:0702BB0090C2887580F0225B
:10020A00E4F50B12029B120006E5099002C293F56F
:10021A0090E50B6509600FC2AC8509993099FDC25A
:10022A0099D2AC85090B3000E0C2ACAF081202F7D4
:10023A00E508642E702D7FC01202EDE4F50AC3E5CD
:10024A000A9405748094805015E50A9002D393FFAE
:10025A001202F77F037E0012027D050A80E07F0208
:09026A001202EDC200D2AC80A02A
:03000300020026D2
:10002600C0E0C0F0C083C082C0D075D000C000C0A0
:0D00360001C002C003C004C005C006C00721
:100043007F087E0012027DAF80EF64F0700302012F
:10005300607580FEE58054F0FF64F06037EF249014
:10006300601B24C0601224E0600924F07014750939
:10007300008012750901800D750902800875090356
:100083008003750910EF64F0600A7580FEE5805403
:10009300F0FF80F17580FDE58054F0FF64F0603778
:1000A300EF2490601B24C0601224E0600924F070E8
:1000B300147509048012750905800D7509068008F9
:1000C3007509078003750910EF64F0600A7580FDF8
:1000D300E58054F0FF80F17580FBE58054F0FF6408
:1000E300F06037EF2490601B24C0601224E06009A5
:1000F30024F070147509088012750909800D7509BB
:100103000A800875090B8003750910EF64F0600A13
:100113007580FBE58054F0FF80F17580F7E580542E
:10012300F0FF64F06037EF2490601B24C06012245A
:10013300E0600924F0701475090C801275090D80B4
:100143000D75090E800875090F8003750910EF649A
:10015300F0600A7580F7E58054F0FF80F17580F058
:10016300D007D006D005D004D003D002D001D000F0
:0B017300D0D0D082D083D0F0D0E0329A
:03002300020301D4
:08030100C298859908D2003270
:10000600C2B57F381202ED7F0C1202ED7F06120296
:0B001600ED7F011202ED7F800202ED81
:1002D80075A0FFC2B7D2B6D2B5120279AFA0EF208F
:0402E800E7F5C2B5BF
:0102EC0022EF
:0A02ED00C2B7120273D2B5C2B522E7
:0A02F700D2B7120273D2B5C2B522CD
:0A027300C2B6C2B58FA07F017E0065
:10027D00D3EF9400EE940040147D717C00ED1D7061
:0D028D00011CED4C70F7EF1F70E61E80E3C2
:01029A002241
:10018A0002020AE493A3F8E493A34003F68001F27F
:10019A0008DFF48029E493A3F85407240CC8C33376
:1001AA00C4540F4420C8834004F456800146F6DF45
:1001BA00E4800B0102040810204080900309E47EC9
:1001CA00019360BCA3FF543F30E509541FFEE4933A
:1001DA00A360010ECF54C025E060A840B8E493A301
:1001EA00FAE493A3F8E493A3C8C582C8CAC583CA2C
:1001FA00F0A3C8C582C8CAC583CADFE9DEE780BEE4
:01030E0000EE
:00000001FF
