:03000000020026D5
:0C002600787FE4F6D8FD75811502006DAE
:10012F003F065B4F666D7D077F6F777C395E797118
:10013F004030313233343536373839414243444514
:03014F00462D003A
:0E01520001111009084920676F742061200018
:100101008E128F13D3E5139400E5129400401E75EF
:100111001400751571E515151570021514E51545D1
:0E0121001470F2E513151370DB151280D7224F
:10000300D2AFD2ACC29FD29ED29C758920758DFD92
:08001300758BFDD28EC2A02204
:1000B200E4FD120003E51190012F93F580ED651127
:1000C20060F3C2ACE4FC74082CF8E66011F59930D8
:1000D20099FDC2990C7F057E0012010180E8AD11E5
:1000E200ED90014093F5993099FDC2997F057E000C
:0F00F20012010175992E3099FDC299D2AC80B6DA
:0300230002001BBD
:06001B00C2988599113224
:100032000200B2E493A3F8E493A34003F68001F232
:1000420008DFF48029E493A3F85407240CC8C333CF
:10005200C4540F4420C8834004F456800146F6DF9E
:10006200E4800B0102040810204080900152E47EDB
:10007200019360BCA3FF543F30E509541FFEE49393
:10008200A360010ECF54C025E060A840B8E493A35A
:10009200FAE493A3F8E493A3C8C582C8CAC583CA85
:1000A200F0A3C8C582C8CAC583CADFE9DEE780BE3D
:01016000009E
:00000001FF
