:0300000002021EDB
:0C021E00787FE4F6D8FD75810C020265C3
:100316003F065B4F666D7D077F6F777C395E79712F
:010326004096
:03032700010810BA
:1002D800D2AFD2ACD2A8758920C29FD29E758DFDAF
:1002E800758BFDD28EC2A0E50890031693F590C2D7
:0502F800887580F02272
:1002FD001202D8E50890031693F590C2AC850899C3
:09030D003099FDC299D2AC80EADE
:03000300020006F2
:10000600C0E0C0F0C083C082C0D075D000C000C0C0
:0D00160001C002C003C004C005C006C00741
:100023007F087E001202AAAF80EF64F07003020122
:10003300407580FEE58054F0FF64F06037EF249054
:10004300601B24C0601224E0600924F0701475085A
:10005300008012750801800D750802800875080379
:100063008003750810EF64F0600A7580FEE5805424
:10007300F0FF80F17580FDE58054F0FF64F0603798
:10008300EF2490601B24C0601224E0600924F07008
:10009300147508048012750805800D75080680081C
:1000A3007508078003750810EF64F0600A7580FD1A
:1000B300E58054F0FF80F17580FBE58054F0FF6428
:1000C300F06037EF2490601B24C0601224E06009C5
:1000D30024F070147508088012750809800D7508DE
:1000E3000A800875080B8003750810EF64F0600A36
:1000F3007580FBE58054F0FF80F17580F7E580544F
:10010300F0FF64F06037EF2490601B24C06012247A
:10011300E0600924F0701475080C801275080D80D6
:100123000D75080E800875080F8003750810EF64BD
:10013300F0600A7580F7E58054F0FF80F17580F078
:10014300D007D006D005D004D003D002D001D00010
:0B015300D0D0D082D083D0F0D0E032BA
:1002AA008E098F0AD3E50A9400E5099400401E7569
:1002BA000B00750C71E50C150C7002150BE50C455D
:0E02CA000B70F2E50A150A70DB150980D722C9
:10015E000001061FE0020418F0101310101418000E
:10016E00800000FF000830C00201FE008060180011
:10017E0008080FF8080F000141414749516101007D
:10018E000244A810688600000201FE000000000074
:10019E000000000000000000000000000000000051
:1001AE0000001A1C0000000000000000000000000B
:1001BE000404047F0404FF040404FF040404040084
:1001CE00000000FE0202E2222222E20202020000EF
:1001DE000000007F4949497F4949497F00000000DE
:1001EE001010202146788000807F402020101000C3
:1001FE000000007F00000000000000000000000072
:10020E00000000CC00000000000000000000000014
:10022A000202FDE493A3F8E493A34003F68001F2EB
:10023A0008DFF48029E493A3F85407240CC8C333D5
:10024A00C4540F4420C8834004F456800146F6DFA4
:10025A00E4800B0102040810204080900327E47E0A
:10026A00019360BCA3FF543F30E509541FFEE49399
:10027A00A360010ECF54C025E060A840B8E493A360
:10028A00FAE493A3F8E493A3C8C582C8CAC583CA8B
:10029A00F0A3C8C582C8CAC583CADFE9DEE780BE43
:01032A0000D2
:00000001FF
